S0130000696F745F6D6567613132382E7372656331
S113000045C0000060C000005EC000005CC000008D
S11300105AC0000058C0000056C0000054C0000080
S113002052C0000050C000004EC000004CC0000090
S11300304AC0000048C0000046C0000044C00000A0
S113004042C0000040C00000EDC000003CC0000001
S11300503AC0000038C0000036C0000034C00000C0
S113006032C0000030C000002EC000002CC00000D0
S11300702AC0000028C0000067C4000024C000009B
S113008022C0000020C000001EC0000011241FBEBA
S1130090CFEFD0E1DEBFCDBF12E0A0E0B1E0EEE5EE
S11300A0F0E100E00BBF02C007900D92A23BB10744
S11300B0D9F723E0A2EBB2E001C01D92AD3FB20735
S11300C0E1F702D0CAC79CCFCF93DF93CDB7DEB799
S11300D0C456D1090FB6F894DEBF0FBECDBF79D098
S11300E088D0789480E091E09093FA038093F903A8
S11300F08EE091E0CFD08DE191E0A4D460D288234A
S1130100E9F383E072D280E027D280E0F2D1FDD21D
S1130110833029F46BE271E086E391E099D24EE3F7
S113012051E063E471E080E01BD32FEF80E792E0BD
S1130130215080409040E1F700C0000081E591E04B
S113014071D3E12CF12C82E6C82E81E0D82E8E01E9
S11301500F5F1F4F94E6992ED8D2833031F46BE2AF
S113016071E086E391E074D214C0823091F44EE3DE
S113017051E063E471E080E0F3D2EFEFF0E722E0D6
S1130180E150F0402040E1F700C0000081E591E03B
S113019049D357018FEFA81AB80AFF92EF92DF9262
S11301A0CF921F930F937ED4C80174D0C8013AD361
S11301B0F801292D11922A95E9F7C801ABD3C8019A
S11301C069D00F900F900F900F900F900F907501C2
S11301D0C3CF549A539A579AE5E9F0E0808184603A
S11301E080838081826080831092900088E089B946
S11301F00895EAE9F0E080818061808380818860ED
S11302008083808180688083EDE9F0E08081846070
S113021080838081826080831092980088E080933C
S1130220990008951F920F920FB60F9211240BB6E6
S11302300F922F938F939F93EF93FF938091B2022A
S11302409091B3022CB1FC01E454FD4F20832D3076
S113025061F4108281E090E090938503809384039D
S11302601092B3021092B20205C001969093B302A9
S11302708093B202FF91EF919F918F912F910F90F4
S11302800BBE0F900FBE0F901F9018955D9BFECF75
S11302908CB90895CF93DF93EC018991882311F0F1
S11302A0F5DFFBCFDF91CF91089590919B0095FFEF
S11302B0FCCF80939C000895CF93DF93EC01899148
S11302C0882311F0F2DFFBCFDF91CF9108952F92B5
S11302D03F924F925F926F927F928F929F92AF92D2
S11302E0BF92CF92DF92EF92FF920F931F93CF931F
S11302F0DF93CDB7DEB72C970FB6F894DEBF0FBEF1
S1130300CDBF1C012DB73EB738872F83FC01019068
S11303100020E9F73197E81BF90BCF0199279A835D
S1130320898301979C838B83EDB7FEB729813A813A
S1130330E21BF30B0FB6F894FEBF0FBEEDBF0DB773
S11303401EB70F5F1F4F812C912C5401C8010196D9
S11303509A878987EB81FC81E00FF11FFC87EB878B
S11303608091B4029091B502A091B602B091B70207
S1130370805F984DAF4FBF4F88169906AA06BB06FB
S113038050F01092B4021092B5021092B60210927C
S1130390B70282E042C08091F603843011F41092D7
S11303A0F603E8E8F3E001900020E9F73197CF0184
S11303B0885893406C01E12CF12CC114D104E10460
S11303C0F10409F457C028E833E03E832D83412C1F
S11303D0512C32014B815C8169857A85C801F9D23F
S11303E0ED81FE818191FE83ED83EB85FC85808325
S11303F049815A81B101C801FDD2FFEF4F1A5F0A4A
S11304006F0A7F0A892B59F51092B4021092B50233
S11304101092B6021092B70281E08093F6038F81A6
S113042098850FB6F8949EBF0FBE8DBF2C960FB65D
S1130430F894DEBF0FBECDBFDF91CF911F910F9116
S1130440FF90EF90DF90CF90BF90AF909F908F90F0
S11304507F906F905F904F903F902F9008954C1431
S11304605D046E047F0408F4B5CF2FEF821A920A5C
S1130470A20AB20A3FEF831A930AA30AB30A70CFFF
S11304808EE6E8E8F3E0DF011D928A95E9F7109221
S1130490BB021092BA021092B9021092B8020895E7
S11304A0CF93DF93EC0184E08093F603CE010FDF5A
S11304B08091F6038823D1F3DF91CF910895F0DF83
S11304C081E09091F603923009F480E008950F934F
S11304D01F93CF93DF938C01EB01D2DFC801ECDED5
S11304E08AE191E0E9DECE01DF91CF911F910F9176
S11304F0E6CF0F931F93CF93DF93CDB7DEB7649707
S11305000FB6F894DEBF0FBECDBF8E010F5F1F4F35
S113051094E1F80111929A95E9F71F928F938FE76E
S113052091E09F938F931F930F93BCD21C8A68E72B
S113053071E0C801CCDF0F900F900F900F900F90D7
S11305400F9064960FB6F894DEBF0FBECDBFDF9157
S1130550CF911F910F9108950F931F93CF93DF9322
S1130560CDB7DEB764970FB6F894DEBF0FBECDBF2C
S11305708E010F5F1F4F94E1F80111929A95E9F7EC
S11305801F928F938DE891E09F938F931F930F9306
S113059089D21C8A68E771E0C80199DF0F900F9037
S11305A00F900F900F900F9064960FB6F894DEBFE3
S11305B00FBECDBFDF91CF911F910F910895CF93BF
S11305C0C5E068E771E08AE991E081DF882311F0F2
S11305D081E009C068E771E08FE991E078DF81117B
S11305E0F7CFC15071F7CF9108950F931F93CF9315
S11305F0DF93CDB7DEB764970FB6F894DEBF0FBEB6
S1130600CDBF8E010F5F1F4F94E1F80111929A95AF
S1130610E9F71F928F9380EB91E09F938F931F9341
S11306200F9340D21C8A68E771E0C80150DF0F9035
S11306300F900F900F900F900F9064960FB6F89450
S1130640DEBF0FBECDBFDF91CF911F910F910895F3
S11306500F931F93CF93DF93CDB7DEB7EC970FB60D
S1130660F894DEBF0FBECDBF8E010F5F1F4F2CE38A
S1130670F80111922A95E9F77F936F939F938F93D3
S11306808DEB91E09F938F931F930F930BD21CAE2E
S113069060ED71E0C8011BDF0FB6F894DEBF0FBE3A
S11306A0CDBF81111EC063EE71E088E893E0B0D144
S11306B0892BC9F46CEE71E088E893E0A9D1892B09
S11306C0A1F465EF71E088E893E0A2D1892B79F475
S11306D06EEF71E088E893E09BD1892B51F485E0BB
S11306E009C080E007C081E005C082E003C083E068
S11306F001C084E0EC960FB6F894DEBF0FBECDBF08
S1130700DF91CF911F910F91089568E771E087E021
S113071092E0DDDE64E172E088E893E079D1892B30
S1130720B9F46DE172E088E893E072D1892B91F419
S113073066E272E088E893E06BD1892B69F46FE29A
S113074072E088E893E064D1892B41F484E0089551
S113075080E0089581E0089582E0089583E008959B
S1130760BF92CF92DF92EF92FF920F931F93CF939A
S1130770DF93CDB7DEB7EC970FB6F894DEBF0FBEAC
S1130780CDBFB82EF62EE72ED42EC52E8E010F5FC8
S11307901F4F8CE3F80111928A95E9F768E372E040
S11307A081E492E094DE882361F0CF92DF92EF92AD
S11307B0FF928CE492E09F938F931F930F9372D1D7
S11307C00DC0CF92DF92EF92FF921F92BF9286E606
S11307D092E09F938F931F930F9364D10FB6F89475
S11307E0DEBF0FBECDBF65E872E0C80170DE8111C7
S11307F006C08091F603823021F085E003C081E0D9
S113080001C082E0EC960FB6F894DEBF0FBECDBFF8
S1130810DF91CF911F910F91FF90EF90DF90CF90D8
S1130820BF900895EF92FF920F931F93CF93DF939E
S1130830CDB7DEB764970FB6F894DEBF0FBECDBF59
S11308408C01CE0101967C0184E1F70111928A9515
S1130850E9F7F80101900020E9F7CF01801B910B23
S113086001969F938F938FE892E09F938F93FF92CB
S1130870EF9218D11C8A6DE972E0C70128DE65EA9F
S113088072E0C80124DE0F900F900F900F900F902C
S11308900F90811106C08091F603823021F085E02B
S11308A003C081E001C082E064960FB6F894DEBF15
S11308B00FBECDBFDF91CF911F910F91FF90EF90AD
S11308C008958091BA029091BB022091B8023091B0
S11308D0B902821B930B08952091B8023091B9029A
S11308E08091BA029091BB022817390784F4809151
S11308F0B8029091B9029C012F5F3F4F3093B90227
S11309002093B802FC01E857FC4F80810895B8DDBC
S113091080E00895EF92FF920F931F93CF93DF939C
S11309208C01EC017E01E01AF10ACBDF18161906DE
S11309301CF4D2DF8993F6CFC701DF91CF911F91C9
S11309400F91FF90EF9008951F920F920FB60F92A0
S113095011240BB60F922F938F939F93EF93FF93D2
S11309602FB7F894E091BA02F091BB0280919C00F9
S1130970E857FC4F80838091BA029091BB020196A4
S11309809093BB028093BA028091BA029091BB0209
S11309908E36910541F41092BB021092BA02109265
S11309A0B9021092B8022FBFFF91EF919F918F91DE
S11309B02F910F900BBE0F900FBE0F901F901895A4
S11309C0FB01DC0102C001900D9241505040D8F768
S11309D008956817790768F4FB01DC01E40FF51F3B
S11309E0A40FB51F02C002900E9241505040D8F798
S11309F00895E6CFFB01DC014150504030F08D9169
S1130A000190801919F40020B9F7881B990B0895F7
S1130A10FB0151915523A9F0BF01DC014D9145170C
S1130A204111E1F759F4CD010190002049F04D91B5
S1130A3040154111C9F3FB014111EFCF81E090E072
S1130A40019708950F931F93CF93DF93E091F903D8
S1130A50F091FA03238121FF1BC08C01D0E0C0E098
S1130A60F80181918F016091F9037091FA03DB0120
S1130A701896ED91FC911997882331F00995892BEB
S1130A8079F3DFEFCFEFECCF8AE00995892B19F0EA
S1130A908FEF9FEF02C08D2F9C2FDF91CF911F917D
S1130AA00F9108950F931F93CF93DF93CDB7DEB7C4
S1130AB02E970FB6F894DEBF0FBECDBF0D891E89E9
S1130AC086E08C831A8309838FEF9FE79E838D834F
S1130AD0AE01475E5F4F6F89788DCE01019610D0CD
S1130AE0EF81F885E00FF11F10822E960FB6F8946F
S1130AF0DEBF0FBECDBFDF91CF911F910F9108953F
S1130B002F923F924F925F926F927F928F929F9219
S1130B10AF92BF92CF92DF92EF92FF920F931F9307
S1130B20CF93DF93CDB7DEB72B970FB6F894DEBF24
S1130B300FBECDBF6C017B018A01FC0117821682B6
S1130B40838181FFBFC1CE0101963C01F6019381EF
S1130B50F70193FD859193FF81917F01882309F427
S1130B60ADC1853239F493FD859193FF81917F0165
S1130B70853221F4B60190E0D6D1E8CF912C212C16
S1130B80312CFFE1F315D8F08B3279F038F4803250
S1130B9079F08332A1F4232D20611DC08D3261F0E0
S1130BA0803369F4232D216016C0832D8260382E92
S1130BB0E32DE4603E2E2AC0F32DF8601DC037FCFF
S1130BC02DC020ED280F2A3040F08E32B9F436FCC7
S1130BD075C1232D2064322E19C036FE06C08AE06A
S1130BE0989E200D1124922E11C0EAE02E9E200D15
S1130BF01124222EF32DF0623F2E08C08C3621F4EE
S1130C00832D8068382E02C0883641F4F70193FDA5
S1130C10859193FF81917F018111B3CF982F9F7D9F
S1130C209554933028F40C5F1F4F9FE399830DC0B4
S1130C30833631F0833771F0833509F055C020C015
S1130C40F801808189830E5F1F4F88248394912C3F
S1130C50530112C02801F2E04F0E511CF801A0808C
S1130C60B18036FE03C0692D70E002C06FEF7FEFE4
S1130C70C5014ED14C018201F32DFF773F2E15C0E3
S1130C80280122E0420E511CF801A080B18036FEFA
S1130C9003C0692D70E002C06FEF7FEFC5012DD155
S1130CA04C01F32DF0683F2E820133FC19C0822DD4
S1130CB090E088169906A0F4B60180E290E033D162
S1130CC02A94F5CFF50137FC859137FE81915F01B8
S1130CD0B60190E028D121102A9421E0821A9108CB
S1130CE08114910479F7E1C0843611F0893639F51D
S1130CF0F80137FE07C060817181828193810C5FA6
S1130D001F4F08C060817181072E000C880B990B5E
S1130D100E5F1F4FF32DFF763F2E97FF09C090956E
S1130D208095709561957F4F8F4F9F4FF0683F2E50
S1130D302AE030E0A30133D1882E861844C08537D9
S1130D4031F4232D2F7EB22E2AE030E025C0932DDE
S1130D50997FB92E8F36C1F018F4883579F0AEC07A
S1130D60803719F0883721F0A9C0E92FE061BE2E41
S1130D70B4FE0DC0FB2DF460BF2E09C034FE0AC0C2
S1130D80292F2660B22E06C028E030E005C020E1FD
S1130D9030E002C020E132E0F801B7FE07C0608114
S1130DA07181828193810C5F1F4F06C060817181C4
S1130DB080E090E00E5F1F4FA301F1D0882E8618CB
S1130DC0FB2DFF773F2E36FE0DC0232D2E7FA22E46
S1130DD0891458F434FE0BC032FC09C0832D8E7E76
S1130DE0A82E05C0B82CA32C03C0B82C01C0B92C64
S1130DF0A4FE0FC0FE01E80DF11D8081803321F4B3
S1130E009A2D997EA92E09C0A2FE06C0B394B3946C
S1130E1004C08A2D867809F0B394A3FC10C0A0FE08
S1130E2006C0B21480F4280C922C9B180DC0B21486
S1130E3058F4B60180E290E076D0B394F8CFB214BF
S1130E4018F42B1802C0982C212CA4FE0FC0B60154
S1130E5080E390E068D0A2FE16C0A1FC03C088E73E
S1130E6090E002C088E590E0B6010CC08A2D867837
S1130E7051F0A1FE02C08BE201C080E2A7FC8DE22A
S1130E80B60190E050D0891430F4B60180E390E0CC
S1130E904AD09A94F8CF8A94F301E80DF11D808129
S1130EA0B60190E040D08110F6CF222009F44ECE56
S1130EB0B60180E290E037D02A94F7CFF60186811C
S1130EC0978102C08FEF9FEF2B960FB6F894DEBF89
S1130ED00FBECDBFDF91CF911F910F91FF90EF9087
S1130EE0DF90CF90BF90AF909F908F907F906F9046
S1130EF05F904F903F902F900895FC0105906150B2
S1130F0070400110D8F7809590958E0F9F1F08951B
S1130F10FC016150704001900110D8F780959095C4
S1130F208E0F9F1F08950F931F93CF93DF93FB01A1
S1130F30238121FD03C08FEF9FEF2CC022FF16C039
S1130F4046815781248135814217530744F4A08197
S1130F50B1819D012F5F3F4F318320838C93268184
S1130F6037812F5F3F4F3783268314C08B01EC01F9
S1130F70FB010084F185E02D0995892BE1F6D80168
S1130F8016968D919C911797019617969C938E9324
S1130F901697CE01DF91CF911F910F910895FA0119
S1130FA0AA27283051F1203181F1E8946F936E7FA4
S1130FB06E5F7F4F8F4F9F4FAF4FB1E03ED0B4E095
S1130FC03CD0670F781F891F9A1FA11D680F791FD6
S1130FD08A1F911DA11D6A0F711D811D911DA11DE7
S1130FE020D009F468943F912AE0269F11243019F7
S1130FF0305D3193DEF6CF010895462F4770405D92
S11310004193B3E00FD0C9F7F6CF462F4F70405D40
S11310104A3318F0495D31FD4052419302D0A9F79B
S1131020EACFB4E0A6959795879577956795BA9595
S1131030C9F700976105710508959B01AC010A2E5B
S113104006945795479537952795BA95C9F7620F32
S1111050731F841F951FA01D0895F894FFCFF1
S113105E00000002000000004601000000006D6167
S113106E696E20737461727421210D0A006D6169B9
S113107E6E20737461727421210D0041314232432A
S113108E334434453500776C616E5F415000353022
S113109E3033003139322E3136382E302E3230354F
S11310AE005B4B53485F4156523A50415353574499
S11310BE5D005B4B53485F4A4156415D4156525366
S11310CE454E442025640A000D0A4F4B0D0A00417B
S11310DE542B4349504D4F44453D25640041542BF8
S11310EE4349504D55583D25640041544530004107
S11310FE540041542B434950434C4F53453D31000A
S113110E41542B43574D4F44453D25640041542BC8
S113111E43574A41503D222573222C222573220027
S113112E0D0A5749464920434F4E4E4543544544B4
S113113E0D0A002B43574A41503A31002B43574A6C
S113114E41503A32002B43574A41503A33002B4315
S113115E574A41503A340041542B43495053544159
S113116E545553005354415455533A320053544139
S113117E5455533A33005354415455533A3400534F
S113118E54415455533A35004349504D55583A300D
S113119E0041542B4349504D55583F0041542B4365
S11311AE495053544152543D22544350222C22252B
S11311BE73222C25730041542B43495053544152EE
S11311CE543D222564222C22544350222C22257372
S11311DE222C257300434F4E4E4543540D0A0041B5
S11311EE542B43495053454E443D2564000D0A4F3C
S11311FE4B0D0A3E000D0A53454E44204F4B0D0A2B
S105120E0000DA
S9030000FC
