:1000000045C0000061C000005FC000005DC000008E
:100010005BC0000059C0000057C0000055C0000080
:1000200053C0000051C000004FC000004DC0000090
:100030004BC0000049C0000047C000007EC0000067
:1000400043C0000041C0000006C300003DC00000E6
:100050003BC000004CC0000037C0000035C00000AD
:1000600033C0000031C000002FC000002DC00000D0
:100070002BC0000029C00000B0C6000025C0000051
:1000800023C0000021C000001FC0000011241FBEBB
:10009000CFEFD0E1DEBFCDBF12E0A0E0B1E0E2E9FA
:1000A000F5E100E00BBF02C007900D92A23FB1073F
:1000B000D9F724E0A2EFB2E001C01D92AD37B2073C
:1000C000E1F7D0D00C94C70A9BCFE1E6F0E0808145
:1000D0008E7F80838CE986B980E487B987E592E0DA
:1000E0000197F1F700C000000895369A08951F9215
:1000F0000F920FB60F9211248F939F9387B1803484
:1001000061F484B195B1909301038093000381E081
:1001100090E09093FF028093FE029F918F910F9049
:100120000FBE0F901F9018958EE083BF10BE89EF11
:1001300081BF8FEF87BF12BE08951F920F920FB637
:100140000F9211240BB60F922F933F934F935F930F
:100150006F937F938F939F93AF93BF93EF93FF938F
:100160008091060390910703A0910803B0910903C1
:100170000196A11DB11D8093060390930703A093E0
:100180000803B093090360910603709107038091FF
:100190000803909109032AEF30E040E050E059D67F
:1001A000672B682B692B39F580910203909103032B
:1001B000A0910403B09105030196A11DB11D809388
:1001C000020390930303A0930403B093050380916B
:1001D000020390910303A0910403B0910503CC970F
:1001E000A105B10540F01092020310920303109292
:1001F000040310920503FF91EF91BF91AF919F917E
:100200008F917F916F915F914F913F912F910F90BF
:100210000BBE0F900FBE0F901F90189510D488231F
:10022000E9F383E022D480E0D7D380E0A2D3ADD439
:10023000833029F46EE071E087E191E049D442E235
:1002400051E067E271E080E0CBD42FEF80E792E0ED
:10025000215080409040E1F700C0000088E391E029
:1002600021C50895CF93DF93CDB7DEB7CC5ED1091A
:100270000FB6F894DEBF0FBECDBFFE01EB59FF4FA6
:100280008CE0DF011D928A95E9F73C9684E6DF0158
:100290001D928A95E9F7B6D1C5D117DF45DF78946D
:1002A00080E091E090937A04809379048DE491E06A
:1002B0000DD2B4DFD09A19DF812C912C5401C12CBE
:1002C000D12CFE0131963F012E01F1E74F0E511C5A
:1002D0007E0125E6E20EF11CCE018B529F4FC751E5
:1002E000DF4F99838883C95ED04017019CE0290EB7
:1002F000311C8091020390910303A0910403B091FB
:10030000050388169906AA06BB0651F0EEDE80901A
:10031000020390900303A0900403B090050302C071
:100320004C015D01D301E4E61D92EA95E9F7C301B2
:1003300031D544E050E06CE571E0C301F6D5892B7E
:1003400009F013C1D2011C92C301C0D189E591E02B
:10035000BDD1F7012CE011922A95E9F763E671E02F
:10036000C301B6D5009799F0D7018D939D938D0168
:1003700007C0F801819391938F01E215F30539F0DD
:1003800063E671E080E090E0A3D5009791F7D70194
:1003900014961C91149715960C9167E671E0812FC5
:1003A000902FB3D5892BA1F56EE971E0F701868115
:1003B0009781ABD5892B11F4D89A01C0D898D70171
:1003C00017968C9117978F9316968C9116978F93FB
:1003D00015968C9115978F9314968C9114978F93F3
:1003E00013968C9113978F9312968C918F93EBE6C3
:1003F000F1E0FF93EF9383E791E09F938F935F92F8
:100400004F92EAD50FB6F894DEBF0FBECDBFA2C0A3
:1004100060E871E0812F902F78D5892B09F063C0B7
:10042000D70116960D90BC91A02DC551DF4FB98311
:10043000A883CB5ED040109751F1CD012CD56C0133
:10044000C451DF4FB881CC5ED040BF93C551DF4F60
:10045000E881CB5ED040EF930F931F93D7011396A3
:100460008C9113978F9312968C918F93EBE6F1E01A
:10047000FF93EF9383E791E09F938F935F924F9267
:10048000ABD50FB6F894DEBF0FBECDBF22C08091B2
:100490000003909101039F938F930F931F93D701B4
:1004A00013968C9113978F9312968C918F93EBE602
:1004B000F1E0FF93EF938AE891E09F938F935F922F
:1004C0004F928AD50FB6F894DEBF0FBECDBFC12CB8
:1004D000D12CD70112966D917C911397CE018B523E
:1004E0009F4F1CD537C067E971E0F701868197817E
:1004F0000CD5892B79F5F9DD8091020390910303E6
:10050000A0910403B09105032091000330910103F1
:10051000BF93AF939F938F933F932F93D7011796DA
:100520008C9117978F9316968C9116978F9315969B
:100530008C9115978F9314968C918F93E1EAF1E04B
:10054000FF93EF935F924F9247D50FB6F894DEBFBB
:100550000FBECDBFD2018C91882339F0C201B6D035
:10056000C201A0D3813009F059DEC114D10409F4CD
:10057000C0CE6091020370910303809104039091B7
:10058000050396010D2C000C440B550B62D4672B10
:10059000682B692B09F0ADCE809102039091030383
:1005A000A0910403B091050388169906AA06BB061C
:1005B00009F49FCE80910003909101039F938F9344
:1005C000DF92CF92C651DF4FB881CA5ED040BF9351
:1005D000C751DF4FE881C95ED040EF938EEA91E0CA
:1005E0009F938F935F924F92F7D4C2016FD089E5AA
:1005F00091E06CD0C20156D30FB6F894DEBF0FBEA7
:10060000CDBF77CE549A539A579AE5E9F0E08081AE
:10061000846080838081826080831092900088E073
:1006200089B90895EAE9F0E0808180618083808162
:1006300088608083808180688083EDE9F0E080813C
:10064000846080838081826080831092980088E03B
:100650008093990008951F920F920FB60F92112464
:100660000BB60F922F938F939F93EF93FF938091ED
:10067000F4029091F5022CB1FC01E65FFC4F20835F
:100680002D3079F4FC01E65FFC4F108281E090E0B0
:100690009093D3038093D2031092F5021092F40248
:1006A00005C001969093F5028093F402FF91EF91BB
:1006B0009F918F912F910F900BBE0F900FBE0F90B7
:1006C0001F9018955D9BFECF8CB90895CF93DF9353
:1006D000EC018881882329F02196F4DF899181112A
:1006E000FCCFDF91CF910895EBE9F0E0908195FF89
:1006F000FDCF80939C000895CF93DF93EC01888118
:10070000882329F02196F0DF89918111FCCFDF91B8
:10071000CF9108952F923F924F925F926F927F9266
:100720008F929F92AF92BF92CF92DF92EF92FF9201
:100730000F931F93CF93DF93CDB7DEB72C970FB6F0
:10074000F894DEBF0FBECDBF1C012DB73EB7388772
:100750002F83FC0101900020E9F73197E81BF90B8A
:10076000CF0199279A83898301979E838D83EDB763
:10077000FEB729813A81E21BF30B0FB6F894FEBF56
:100780000FBEEDBF0DB71EB70F5F1F4F812C912C11
:100790005401C80101969A878987ED81FE81E00F97
:1007A000F11FFC87EB878091F6029091F702A091F0
:1007B000F802B091F902805F984DAF4FBF4F881695
:1007C0009906AA06BB0650F01092F6021092F702A4
:1007D0001092F8021092F90282E05EC080917604D5
:1007E000843011F410927604E6EDF3E001900020DD
:1007F000E9F73197CF01865D93406C01E12CF12C34
:10080000C114D104E104F10409F46EC08FE99FE042
:100810000197F1F700C000009FEF891A990AA90A11
:10082000B90AE6EDF3E001900020E9F73197CF0136
:10083000865D9340A0E0B0E0C816D906EA06FB0644
:1008400009F052C0E6EDF3E0FC83EB83412C512C20
:1008500032014D815E8169857A85C80145D3EB817E
:10086000FC818191FC83EB83EB85FC85808349814E
:100870005A81B101C80159D3FFEF4F1A5F0A6F0ABD
:100880007F0A892B59F51092F6021092F702109206
:10089000F8021092F90281E080937604EF81F885E6
:1008A0000FB6F894FEBF0FBEEDBF2C960FB6F894AE
:1008B000DEBF0FBECDBFDF91CF911F910F91FF9093
:1008C000EF90DF90CF90BF90AF909F908F907F90F0
:1008D0006F905F904F903F902F9008954C145D045F
:1008E0006E047F0408F4B5CF8FE99FE00197F1F71C
:1008F00000C000009FEF891A990AA90AB90A53CFCC
:1009000080EAE6EDF3E0DF011D928A95E9F71092A7
:10091000FD021092FC021092FB021092FA0208955E
:10092000CF93DF93EC0184E080937604CE01F2DE76
:10093000809176048823D1F3DF91CF910895F0DF81
:1009400081E090917604923009F480E008950F934D
:100950001F93CF93DF938C01EB01D2DFC801CCDE74
:1009600089E591E0C9DECE01DF91CF911F910F9112
:10097000E6CF0F931F93CF93DF93CDB7DEB7649786
:100980000FB6F894DEBF0FBECDBF8E010F5F1F4FB5
:1009900094E1F80111929A95E9F71F928F938FEBEA
:1009A00091E09F938F931F930F9316D31C8A68EB4C
:1009B00071E0C801CCDF0F900F900F900F900F9057
:1009C0000F9064960FB6F894DEBF0FBECDBFDF91D7
:1009D000CF911F910F9108950F931F93CF93DF93A2
:1009E000CDB7DEB764970FB6F894DEBF0FBECDBFAC
:1009F0008E010F5F1F4F94E1F80111929A95E9F76C
:100A00001F928F938DEC91E09F938F931F930F9381
:100A1000E3D21C8A68EB71E0C80199DF0F900F9058
:100A20000F900F900F900F9064960FB6F894DEBF62
:100A30000FBECDBFDF91CF911F910F910895CF933E
:100A4000C5E068EB71E08AED91E081DF882311F069
:100A500081E009C068EB71E08FED91E078DF8111F2
:100A6000F7CFC15071F7CF9108950F931F93CF9394
:100A7000DF93CDB7DEB764970FB6F894DEBF0FBE35
:100A8000CDBF8E010F5F1F4F94E1F80111929A952F
:100A9000E9F71F928F9380EF91E09F938F931F93BD
:100AA0000F939AD21C8A68EB71E0C80150DF0F9057
:100AB0000F900F900F900F900F9064960FB6F894D0
:100AC000DEBF0FBECDBFDF91CF911F910F91089573
:100AD0000F931F93CF93DF93CDB7DEB7EC970FB68D
:100AE000F894DEBF0FBECDBF8E010F5F1F4F2CE30A
:100AF000F80111922A95E9F77F936F939F938F9353
:100B00008DEF91E09F938F931F930F9365D21CAE4F
:100B100060E172E0C8011BDF0FB6F894DEBF0FBEC4
:100B2000CDBF81111EC063E272E086ED93E00BD26F
:100B3000892BC9F46CE272E086ED93E004D2892B34
:100B4000A1F465E372E086ED93E0FDD1892B79F4A1
:100B50006EE372E086ED93E0F6D1892B51F485E0E7
:100B600009C080E007C081E005C082E003C083E0E7
:100B700001C084E0EC960FB6F894DEBF0FBECDBF87
:100B8000DF91CF911F910F91089568EB71E087E499
:100B900092E0DDDE64E572E086ED93E0D4D1892B4E
:100BA000B9F46DE572E086ED93E0CDD1892B91F437
:100BB00066E672E086ED93E0C6D1892B69F46FE6B4
:100BC00072E086ED93E0BFD1892B41F484E0089573
:100BD00080E0089581E0089582E0089583E008951B
:100BE000BF92CF92DF92EF92FF920F931F93CF931A
:100BF000DF93CDB7DEB7EC970FB6F894DEBF0FBE2C
:100C0000CDBFB82EF62EE72ED42EC52E8E010F5F47
:100C10001F4F8CE3F80111928A95E9F768E772E0BB
:100C200081E892E094DE882361F0CF92DF92EF9228
:100C3000FF928CE892E09F938F931F930F93CCD1F8
:100C40000DC0CF92DF92EF92FF921F92BF9286EA81
:100C500092E09F938F931F930F93BED10FB6F8949A
:100C6000DEBF0FBECDBF65EC72E0C80170DE811142
:100C700006C080917604823021F085E003C081E0D7
:100C800001C082E0EC960FB6F894DEBF0FBECDBF78
:100C9000DF91CF911F910F91FF90EF90DF90CF9058
:100CA000BF900895EF92FF920F931F93CF93DF931E
:100CB000CDB7DEB764970FB6F894DEBF0FBECDBFD9
:100CC0008C01CE0101967C0184E1F70111928A9595
:100CD000E9F7F80101900020E9F7CF01801B910BA3
:100CE00001969F938F938FEC92E09F938F93FF9247
:100CF000EF9272D11C8A6DED72E0C70128DE65EEBD
:100D000072E0C80124DE0F900F900F900F900F90AB
:100D10000F90811106C080917604823021F085E029
:100D200003C081E001C082E064960FB6F894DEBF94
:100D30000FBECDBFDF91CF911F910F91FF90EF902C
:100D400008958091FC029091FD022091FA02309169
:100D5000FB02821B930B08952091FA023091FB0253
:100D60008091FC029091FD022817390784F480914C
:100D7000FA029091FB029C012F5F3F4F3093FB02E0
:100D80002093FA02FC01EA52FC4F80810895B8DDFD
:100D900080E00895EF92FF920F931F93CF93DF931C
:100DA0008C012FEF80E792E0215080409040E1F7E6
:100DB00000C00000E8017E01E01AF10AC2DF181647
:100DC00019061CF4C9DF8993F6CFC701DF91CF91D3
:100DD0001F910F91FF90EF9008951F920F920FB601
:100DE0000F9211240BB60F922F938F939F93EF9333
:100DF000FF932FB7F894E091FC02F091FD028091EF
:100E00009C00EA52FC4F80838091FC029091FD028D
:100E100001969093FD028093FC028091FC029091D8
:100E2000FD02803A910541F41092FD021092FC02FD
:100E30001092FB021092FA022FBFFF91EF919F9147
:100E40008F912F910F900BBE0F900FBE0F901F90A0
:100E50001895A1E21A2EAA1BBB1BFD010DC0AA1FEB
:100E6000BB1FEE1FFF1FA217B307E407F50720F013
:100E7000A21BB30BE40BF50B661F771F881F991F8E
:100E80001A9469F760957095809590959B01AC01D7
:100E9000BD01CF010895FC0188279927E89421918D
:100EA0002032E9F3293010F02E30C8F32B3239F01C
:100EB0002D3231F4689403C087D0820F911D2191A7
:100EC00020532A30C8F31EF4909581959F4F0895C2
:100ED00042EF52E052C0FB01DC0102C001900D92D2
:100EE00041505040D8F708956817790768F4FB011E
:100EF000DC01E40FF51FA40FB51F02C002900E9293
:100F000041505040D8F70895E6CFFB01DC018D91A8
:100F1000019080190110D9F3990B0895FB01DC01B0
:100F200001900D920020E1F70895FB01DC01415092
:100F3000504030F08D910190801919F40020B9F7DC
:100F4000881B990B0895FB0151915523A9F0BF010E
:100F5000DC014D9145174111E1F759F4CD010190A4
:100F6000002049F04D9140154111C9F3FB01411199
:100F7000EFCF81E090E001970895FA01A191B0814F
:100F8000009719F41097E1F0CD01DC01CD010D902F
:100F9000002011F4C00113C0FB012191222319F09C
:100FA0002015D9F7F3CFFB012191201519F41E92DA
:100FB000119606C02223C1F70D900020A1F7D001A1
:100FC000FA01A193B08308957AE0979F902D879FAF
:100FD000802D910D112408950F931F93CF93DF93CC
:100FE000CDB7DEB72E970FB6F894DEBF0FBECDBFDC
:100FF0000D891E8986E08C831A8309838FEF9FE712
:101000009E838D83AE01475E5F4F6F89788DCE01E1
:10101000019610D0EF81F885E00FF11F10822E9617
:101020000FB6F894DEBF0FBECDBFDF91CF911F91F9
:101030000F9108952F923F924F925F926F927F92FD
:101040008F929F92AF92BF92CF92DF92EF92FF92D8
:101050000F931F93CF93DF93CDB7DEB72B970FB6C8
:10106000F894DEBF0FBECDBF6C017B018A01FC018D
:1010700017821682838181FFBFC1CE0101963C0198
:10108000F6019381F70193FD859193FF81917F0193
:10109000882309F4ADC1853239F493FD859193FF1E
:1010A00081917F01853221F4B60190E0D6D1E8CF5D
:1010B000912C212C312CFFE1F315D8F08B3279F0F3
:1010C00038F4803279F08332A1F4232D20611DC0E1
:1010D0008D3261F0803369F4232D216016C0832D99
:1010E0008260382EE32DE4603E2E2AC0F32DF86096
:1010F0001DC037FC2DC020ED280F2A3040F08E3265
:10110000B9F436FC75C1232D2064322E19C036FE89
:1011100006C08AE0989E200D1124922E11C0EAE0AC
:101120002E9E200D1124222EF32DF0623F2E08C09A
:101130008C3621F4832D8068382E02C0883641F425
:10114000F70193FD859193FF81917F018111B3CFC9
:10115000982F9F7D9554933028F40C5F1F4F9FE389
:1011600099830DC0833631F0833771F0833509F0F0
:1011700055C020C0F801808189830E5F1F4F8824ED
:101180008394912C530112C02801F2E04F0E511CA0
:10119000F801A080B18036FE03C0692D70E002C066
:1011A0006FEF7FEFC5014ED14C018201F32DFF7728
:1011B0003F2E15C0280122E0420E511CF801A080EC
:1011C000B18036FE03C0692D70E002C06FEF7FEF83
:1011D000C5012DD14C01F32DF0683F2E820133FC67
:1011E00019C0822D90E088169906A0F4B60180E21D
:1011F00090E033D12A94F5CFF50137FC859137FE85
:1012000081915F01B60190E028D121102A9421E05C
:10121000821A91088114910479F7E1C0843611F0A3
:10122000893639F5F80137FE07C060817181828106
:1012300093810C5F1F4F08C060817181072E000CE5
:10124000880B990B0E5F1F4FF32DFF763F2E97FFF4
:1012500009C090958095709561957F4F8F4F9F4FF6
:10126000F0683F2E2AE030E0A30133D1882E8618A3
:1012700044C0853731F4232D2F7EB22E2AE030E092
:1012800025C0932D997FB92E8F36C1F018F488357B
:1012900079F0AEC0803719F0883721F0A9C0E92F66
:1012A000E061BE2EB4FE0DC0FB2DF460BF2E09C060
:1012B00034FE0AC0292F2660B22E06C028E030E096
:1012C00005C020E130E002C020E132E0F801B7FEC5
:1012D00007C060817181828193810C5F1F4F06C0BE
:1012E0006081718180E090E00E5F1F4FA301F1D01B
:1012F000882E8618FB2DFF773F2E36FE0DC0232D3E
:101300002E7FA22E891458F434FE0BC032FC09C083
:10131000832D8E7EA82E05C0B82CA32C03C0B82C1C
:1013200001C0B92CA4FE0FC0FE01E80DF11D8081A3
:10133000803321F49A2D997EA92E09C0A2FE06C001
:10134000B394B39404C08A2D867809F0B394A3FCB7
:1013500010C0A0FE06C0B21480F4280C922C9B187A
:101360000DC0B21458F4B60180E290E076D0B39488
:10137000F8CFB21418F42B1802C0982C212CA4FE1C
:101380000FC0B60180E390E068D0A2FE16C0A1FCB9
:1013900003C088E790E002C088E590E0B6010CC089
:1013A0008A2D867851F0A1FE02C08BE201C080E256
:1013B000A7FC8DE2B60190E050D0891430F4B6015C
:1013C00080E390E04AD09A94F8CF8A94F301E80D34
:1013D000F11D8081B60190E040D08110F6CF22202F
:1013E00009F44ECEB60180E290E037D02A94F7CFD0
:1013F000F6018681978102C08FEF9FEF2B960FB683
:10140000F894DEBF0FBECDBFDF91CF911F910F913A
:10141000FF90EF90DF90CF90BF90AF909F908F9014
:101420007F906F905F904F903F902F900895FC01B8
:101430000590615070400110D8F7809590958E0FFF
:101440009F1F0895FC016150704001900110D8F772
:10145000809590958E0F9F1F08950F931F93CF93A4
:10146000DF93FB01238121FD03C08FEF9FEF2CC091
:1014700022FF16C0468157812481358142175307C8
:1014800044F4A081B1819D012F5F3F4F31832083C0
:101490008C93268137812F5F3F4F3783268314C07B
:1014A0008B01EC01FB010084F185E02D0995892B6E
:1014B000E1F6D80116968D919C9117970196179693
:1014C0009C938E931697CE01DF91CF911F910F9130
:1014D0000895FA01AA27283051F1203181F1E894CA
:1014E0006F936E7F6E5F7F4F8F4F9F4FAF4FB1E017
:1014F0003ED0B4E03CD0670F781F891F9A1FA11D12
:10150000680F791F8A1F911DA11D6A0F711D811D12
:10151000911DA11D20D009F468943F912AE0269FD7
:1015200011243019305D3193DEF6CF010895462F36
:101530004770405D4193B3E00FD0C9F7F6CF462F17
:101540004F70405D4A3318F0495D31FD4052419380
:1015500002D0A9F7EACFB4E0A6959795879577953D
:101560006795BA95C9F700976105710508959B01C4
:10157000AC010A2E06945795479537952795BA954D
:10158000C9F7620F731F841F951FA01D0895F8945B
:02159000FFCF8B
:1015920000000002000000006203000000006B6314
:1015A200636930393823004B4343495F5354435FE7
:1015B200530038383838006D766C313030642E6420
:1015C200646E732E6E6574005B4C59575F415652C0
:1015D2005D7369676E40504153535744006D6169B2
:1015E2006E20737461727421210D0A000D0A2B4959
:1015F2005044005B405D004C4544004C59575F41EC
:101602005652005B25735D25734025734025730098
:1016120047455453454E534F52005B25735D257326
:1016220040257340256400434F4E444954494F4E70
:10163200005B25735D2573402564402564005B25AE
:10164200735D2564402564000D0A4F4B0D0A00416D
:10165200542B4349504D4F44453D25640041542B82
:101662004349504D55583D25640041544530004191
:10167200540041542B434950434C4F53453D310094
:1016820041542B43574D4F44453D25640041542B53
:1016920043574A41503D222573222C2225732200B2
:1016A2000D0A5749464920434F4E4E45435445443F
:1016B2000D0A002B43574A41503A31002B43574AF7
:1016C20041503A32002B43574A41503A33002B43A0
:1016D200574A41503A340041542B434950535441E4
:1016E200545553005354415455533A3200535441C4
:1016F2005455533A33005354415455533A340053DA
:1017020054415455533A35004349504D55583A3097
:101712000041542B4349504D55583F0041542B43EF
:10172200495053544152543D22544350222C2225B5
:1017320073222C25730041542B4349505354415278
:10174200543D222564222C22544350222C222573FC
:10175200222C257300434F4E4E4543540D0A00413F
:10176200542B43495053454E443D2564000D0A4FC6
:101772004B0D0A3E000D0A53454E44204F4B0D0AB5
:02178200000065
:00000001FF
